:020000040000FA
:060000000A128A110C280F
:10000800FE00030EF1000A08F2000A128A11B32B4F
:100018000A128A110F28F901FA0183120313BC018D
:1000280083010A128A11922B83120313B00030083D
:100038000A128A1132230A128A1183120313AD009D
:100048002D08B00029080A128A1132230A128A11CF
:1000580083120313AD002D08A9002A080A128A1179
:1000680032230A128A1183120313AD002D08AA0045
:100078002B080A128A1132230A128A1183120313D7
:10008800AD002D08AB002C080A128A1132230A127F
:100098008A1183120313AD002D08AC000A128A11CD
:1000A800E5230A128A11D030F3000030F4000A1256
:1000B8008A11D2230A128A110030F300F4000A12BE
:1000C8008A11D2230A128A110030F300F4000A12AE
:1000D8008A11D2230A128A11831203133008AD0041
:1000E800AE012D08F3002E08F4000A128A11D2235B
:1000F8000A128A11831203132908AD00AE012D08D4
:10010800F3002E08F4000A128A11D2230A128A1167
:100118000130F3000030F4000A128A11D2230A12C7
:100128008A11831203132A08AD00AE012D08F300CB
:100138002E08F4000A128A11D2230A128A11831295
:1001480003132B08AD00AE012D08F3002E08F400B0
:100158000A128A11D2230A128A11831203132C0855
:10016800AD00AE012D08F3002E08F4000A128A1122
:10017800D2230A128A110A128A11DC230A128A115E
:10018800033083120313AF000830AE007630AD00A1
:10019800AD0BCC28AE0BCC28AF0BCC280000080048
:1001A8000A128A11E5230A128A11D030F3000030AE
:1001B800F4000A128A11D2230A128A110030F300BD
:1001C800F4000A128A11D2230A128A110A128A1119
:1001D800EE230A128A11D130F3000030F4000A121B
:1001E8008A11D2230A128A110130F3000030F40078
:1001F8000A128A1164230A128A11730883120313DC
:10020800A0002008F9000130F3000030F4000A12C1
:100218008A1164230A128A11730883120313A00037
:100228002008BB000130F3000030F4000A128A11E4
:1002380064230A128A11730883120313A00020088A
:10024800BA000130F3000030F4000A128A11642366
:100258000A128A110130F3000030F4000A128A11E0
:1002680064230A128A11730883120313A00020085A
:10027800B9000130F3000030F4000A128A11642337
:100288000A128A11730883120313A0002008B80009
:100298000030F300F4000A128A1164230A128A114A
:1002A800730883120313A0002008B7000A128A11EA
:1002B800DC230A128A11823083120313A100DD3075
:1002C800A000A00B6529A10B652908008312031360
:1002D800A101F41F702971297829F309F409F30A97
:1002E8000319F40AA101A10AF61F7B297C29852993
:1002F800F509F609F50A0319F60A0130F700770837
:10030800A106A201A3017308740403198C298D297D
:10031800C429A001A00A9B2901300310F30DF40D94
:10032800FF3E031D91290130F7007708A007F41F4D
:100338009E299F29902901300310A20DA30DFF3E8D
:10034800031DA02974087602031DAC2973087502E1
:10035800031CAF29B029B7297308F5027408031CD8
:10036800F603F602221401300310F40CF30CFF3EDE
:10037800031DB8290130A002031DC329C4299F29E0
:1003880021080319C829C929CE29A209A309A20A43
:100398000319A30A2308F4002208F3000800003018
:1003A800F7000030F6000030F5000030F40083124A
:1003B800031323082204210420040319E429E5294E
:1003C800322AF801F80AF5290130F3000310A00DCC
:1003D800A10DA20DA30DF30BEA290130F300730858
:1003E800F807A31FF829F929E8290130F3000310B9
:1003F800F40DF50DF60DF70DF30BFB292308270275
:10040800031D102A22082602031D102A210825028E
:10041800031D102A20082402031C132A142A232A45
:100428002008A4022108031C210FA5022208031C8E
:10043800220FA6022308031C230FA70274140130FD
:100448000310A30CA20CA10CA00CFF3E031D242A30
:100458000130F802031D312A322AF9297708A3004E
:100468007608A2007508A1007408A0000800831689
:1004780003130F088F3960388F008F110F118F10F9
:100488000F148801D830870083120313870188016D
:100498001E30B1003108BB000230B1003108BA008B
:1004A8000330B1003108B900B801B80A1030B10002
:1004B8003108B700BC018B170B17831603138C1672
:1004C800831203138C12831603139A0119309900AF
:1004D800831603178711243083160313980090306E
:1004E8008312031398000030AB000130AA00863055
:1004F800A900A030A8000A128A11F8220A128A114B
:10050800831203133A08B1003108A9003908B20070
:100518003208AA003808B3003308AB003708B40023
:100528003408AC003B080A128A1118200A128A11F2
:10053800080083120313A101F61FA32AA42AAB2AD9
:10054800F509F609F50A0319F60AA101A10AF41F2B
:10055800AE2AAF2AB42AF309F409F30A0319F40AF4
:10056800730874040319B92ABA2AE92AA001A00A4F
:10057800C82A01300310F30DF40DFF3E031DBE2AF7
:100588000130F7007708A007F41FCB2ACC2ABD2A30
:1005980074087602031DD22A73087502031CD52A33
:1005A800D62ADC2A7308F5027408031CF603F6023F
:1005B80001300310F40CF30CFF3E031DDD2A01305B
:1005C800A002031DE82AE92ACC2A21080319ED2AEA
:1005D800EE2AF32AF509F609F50A0319F60A760848
:1005E800F4007508F3000800283083120313940000
:1005F800831603139101831203132808AC002908FA
:10060800AD002A08AE002B08AF0002300310AC0D75
:10061800AD0DAE0DAF0DFF3E031D0A2B2F08A30035
:100628002E08A2002D08A1002C08A0000030A70069
:100638007A30A6001230A5000030A4000A128A11F0
:10064800D3210A128A11831203132008FF3E83164E
:10065800031393009401871507160800F8000A3061
:10066800F3000030F400780883120313A400A501F6
:100678002408F5002508F6000A128A116A210A12D0
:100688008A11730883120313A60004300310A60D01
:10069800FF3E031D4A2B0A30F3000030F4007808AF
:1006A800A700A8012708F5002808F6000A128A11F1
:1006B8009D220A128A117308831203132607080061
:1006C8000A128A11C5230A128A1183160313911577
:1006D8000A128A11C5230A128A11831203131308F6
:1006E800F500F6017508F7007608F8000A128A1175
:1006F800C5230A128A1173037404031D842B852BE6
:10070800892B8316031391128C2B831603139116CE
:1007180011167808F4007708F30008000A128A1105
:100728003B220A128A110A128A11D4200A128A114B
:10073800831203133B0899001A3083120313B6007F
:10074800F730B500B50BA62BB60BA62BAB2B831237
:1007580003133C088800972B0A128A110C2883126D
:1007680003138C1EB82BB92BBE2B8C121A08F00061
:100778007008BC0072088A00710E8300FE0E7E0E9F
:100788000900831603131419CA2BCB2BC52B110888
:100798001F39031DD02BD12BC52B08000A128A1133
:1007A800C5230A128A1173088312031393000800E1
:1007B8000A128A11C5230A128A1183160313111506
:1007C80008000A128A11C5230A128A118316031314
:1007D800111408000A128A11C5230A128A118316F5
:0607E80003139114080048
:04400E00D420FF3F7C
:00000001FF
